:1000000000000420D1020000F9020000FB02000001
:10001000FD020000FF0200000103000000000000DC
:1000200000000000000000000000000003030000CA
:1000300005030000000000000703000009030000A2
:100040009D850000E9D603000B030000D5F60300F0
:100050000B0300000B030000617E00000B03000097
:100060000B0300000B0300000B0300000B03000058
:100070000B03000045B303000B0300000B0300005B
:100080000B030000C91400000B0300000B03000069
:10009000851500000B0300000B0300000B0300009C
:1000A0000B0300000B0300000B0300000B03000018
:1000B0000B0300000B030000000000000000000024
:1000C0000B0300000B0300000B0300000B030000F8
:1000D00081AA03000B0300000B0300000D6B00005E
:1000E0000B0300000B0300000B03000000000000E6
:1000F000000000000B030000000000000B030000E4
:1001000000000000000000000000000000000000EF
:1001100000000000000000000000000000000000DF
:1001200000000000000000000000000000000000CF
:1001300000000000000000000000000000000000BF
:1001400000000000000000000000000000000000AF
:10015000000000000000000000000000000000009F
:10016000000000000000000000000000000000008F
:10017000000000000000000000000000000000007F
:10018000000000000000000000000000000000006F
:10019000000000000000000000000000000000005F
:1001A000000000000000000000000000000000004F
:1001B000000000000000000000000000000000003F
:1001C000000000000000000000000000000000002F
:1001D000000000000000000000000000000000001F
:1001E000000000000000000000000000000000000F
:1001F00000000000000000000000000000000000FF
:1002000010B5054C237833B9044B13B10448AFF350
:1002100000800123237010BD400200200000000078
:10022000F0A30400084B10B51BB108490848AFF310
:1002300000800848036803B910BD074B002BFBD0B2
:10024000BDE81040184700BF000000004402002035
:10025000F0A304003802002000000000154B002B22
:1002600008BF134B9D46A3F5803A00218B460F46ED
:100270001348144A121A3FF06AFB0F4B002B00D0B0
:1002800098470E4B002B00D0984700200021040017
:100290000D000D48002802D00C48AFF300803FF05D
:1002A000CFFA2000290008F0BFFE3FF0A3FA00BFFC
:1002B0000000080000000420000000000000000012
:1002C00040020020E4CE00200000000000000000FA
:1002D0000649074A074B9B1A03DD043BC858D05018
:1002E000FBDC09F069F8FFF7B9FF000060A4040027
:1002F0000000002040020020FEE7FEE7FEE7FEE7E8
:10030000FEE7FEE7FEE7FEE7FEE7FEE7084B185CC8
:100310001F288ABF074B4FF0A04300F01F00D3F8FF
:10032000043523FA00F000F0010080F0010070476E
:100330005C14040000030050074B1B5C1F2B86BF9E
:1003400003F01F0305494FF0A041012202FA03F315
:10035000C1F80C35704700BF5C1404000003005066
:10036000074B1B5C1F2B86BF03F01F0305494FF093
:10037000A041012202FA03F3C1F80835704700BF1B
:100380005C140400000300504FF0A04310B44FF47D
:1003900080404FF400544FF400414FF48032C3F8D2
:1003A0000845C3F80805C3F80815C3F808255DF823
:1003B000044B70474FF0A04310B44FF480404FF40B
:1003C00000544FF400414FF48032C3F80C45C3F899
:1003D0000C05C3F80C15C3F80C255DF8044B7047E9
:1003E0000D4B10B4195C1F298CBF0C484FF0A04076
:1003F0004FF00102D0F8044588BF01F01F0102FA56
:1004000001F323EA04022340C0F80825C0F80C35A4
:100410005DF8044B704700BF5C14040000030050FB
:100420000B2809D00C2809D0182809D019280CBF8E
:1004300003204FF0FF3070470020704701207047C5
:1004400002207047C20770B40ED483070AD54FF05C
:10045000A0430C22C3F82C27C3F83027C3F8602729
:10046000C3F8642770BC70474FF0A04303224FF4D9
:1004700000564FF480454FF400444FF48031C3F8E8
:100480003427C3F83827C3F83C27C3F84027C3F8FC
:100490000865C3F80855C3F80845C3F80815D4E73C
:1004A000704700BF00B583B0044B0093044A40235B
:1004B00000F03AF803B05DF804FB00BFC50400008B
:1004C0006002002012B3144B2DE9F047134E88460A
:1004D000144643F0010903270025224608EB0501D5
:1004E000002008F00DFE03461D444FF47A40E41A44
:1004F00033B93378DFF824A033B1C847013F06D0C1
:1005000001233370002CE8D1BDE8F08770478AF8EA
:100510000070BDE8F08700BF601404005C0200209A
:10052000704700BF08F018BFF0B595B0002415461D
:100530000F4608461E4604F07FFE38462346082232
:10054000089505A91A9D0D9509960A948DF82C40D9
:100550000C9404F0C9FE9DF81430079DBDF81800F6
:10056000BDF81A108DF8114003F00302012A02951C
:10057000ADF80C00ADF80E1028D0022A04D0384691
:1005800004F05EFE15B0F0BDBDF81650C3F3C20313
:100590008DF81030C5F389150826082D2C4628BF84
:1005A0000824334622460EA9384604F09DFE2D1B32
:1005B000214608AB02AA0EA8264400F083FC002DB9
:1005C000EBD1384604F03CFE15B0F0BDBDF8146028
:1005D000059DC6F38316C3F3C204B2000EA93846C4
:1005E00008238DF81040C5F3952504F07DFE08AB77
:1005F0000093324628460EA902AB00F0BDFBBEE7D1
:1006000008B5FFF78FFF0421034800F06DFB034B93
:1006100001225A7108BD00BF34A40400000000206C
:1006200070B5304C84B004F5836004F019FA04F21C
:10063000144004F015FA6268A66802EA0605AB1CCD
:1006400004EB8301081D097911F0040117D0037828
:1006500003F00303012B37D0022B0DD14388C3F3E2
:10066000891302331A4406EA0205AB1C04EB830328
:10067000181D197901F004010029E8D1AB1C04EB25
:100680008303511C58680190314004EB810300F052
:100690000300DB680293012802F102041AD0022849
:1006A00016D1BDF80630BDF80A50C3F389130333E1
:1006B00004EB93040B4E06F2144004F0DFF900B192
:1006C0007460284604B070BD0388C3F38313C8E781
:1006D0000025EFE7BDF80430BDF80A50C3F38313DB
:1006E0001C44E7E7A00200200B4B0C4810B5002289
:1006F000FF21C3F8182499601A605A60C3F81424C3
:1007000083F8202404F050FD044610B9044804F096
:1007100023FE204610BD00BFA002002044A4040018
:100720009C14040021B9114B03EBC0000068704712
:1007300030B40F4A0D4C121BD2080CD00D4D2B8833
:10074000834210D0002303E035F82310814205D006
:1007500001339A42F8D1002030BC704704EBC3004B
:10076000006830BC70472046FAE700BFF4A30400DD
:1007700034A404003C020020094B013903EBC00003
:1007800003290BD8DFE801F00208060402207047B5
:100790004079704700797047042070470020704707
:1007A000F4A304002DE9F04F9A4C626823689A4242
:1007B00085B000F0C7800023C4F81834BFF34F8F12
:1007C0006268A56802EA0503023304EB83010E1D8B
:1007D000097948071FD5D4F800E02746337803F09D
:1007E0000303012B48D0022B04D17388C3F3891370
:1007F00002331A4405EA02030233D4F81804DFF87E
:1008000014C207EB83010E1D00283BD196453DD94C
:1008100009794907E2D404EB8303511C586801901D
:10082000294004EB810300F00300DB6802930228F7
:1008300002F10208774F2ED0012800F08780D4F80B
:1008400010543DB12B6828469B689847EB681D689B
:10085000002DF7D1704B71487149181AC008000477
:1008600040F0020000F0E0F894E80900181A18BF00
:10087000012005B0BDE8F08F3388C3F38313023342
:100880001A44B7E705EA02030233C4E7CCF804E0F0
:1008900005B0BDE8F08FBDF806306248C3F3891992
:1008A000B9F1500FCA46A8BF4FF0500A6AF38F1330
:1008B0000AF10801ADF8063004F078FC064600287D
:1008C000BDD025EA080B0BF1010B04F0B5FC4FEA93
:1008D0008B0B0023082201A9304604F0D1FCDA4535
:1008E00071D9BBF1000F7DD1524607F10C010823ED
:1008F000304604F0C5FC09F1030708EB9707D4F86C
:100900001834444A002B69D1D2F810545DB1EB6819
:100910005A79314628461AB12B681B689847EB680C
:100920001D68002DF3D1304604F08AFC002003F04E
:10093000A9FFD4F81834374A03B95760002003F0F0
:10094000A9FF91E7002005B0BDE8F08FBDF80430A5
:100950003448C3F38312062A28BF0622911C62F38F
:1009600089138900ADF8043004F020FC0646002805
:100970003FF465AF04F060FC0023082201A9304673
:1009800004F07EFCBDF8043013F4707F40D04FF0CB
:10099000000A4FF0080908EA050104EB81014B4603
:1009A0000C310422304604F06BFCBDF804300AF12F
:1009B000010AC3F3831308F10107534509F1040940
:1009C000B846E8D89BE705EA080107EB81010C313E
:1009D00052460823304604F053FC8CE7304604F0BE
:1009E0002FFC41E705EA080107EB8101CBEB0A0583
:1009F0005A4630460C31EDB2082304F041FC2A4639
:100A00000BF1080307F10C01304604F039FC72E7E2
:100A1000474674E7A00200200CA40400F4A30400DD
:100A20008414040044A404002DE9F843DFF8D480C2
:100A3000054600200F46D8F8086003F023FFD8F8D9
:100A40000820D8F80430D8F80040134401331B1BA9
:100A5000012B52D801212A4803F0D6FFFFF7E0FD11
:100A60000146274803F0D0FF98E80A00D8F808208C
:100A7000134401335B1A012BECD90A404FF00109F2
:100A800008EB820249F004036FF38913D360D8F8AE
:100A9000003000200233C8F8003003F0FBFE0021D4
:100AA000174803F097FF80F3100004EB090333406D
:100AB000344008EB83030004023408EB840440EA6A
:100AC0001540D860237965F3C5032371A3886FF3BC
:100AD0008913A380626867F39F22134669F30103B9
:100AE0006FF382036260237198F820341BB1FFF723
:100AF00059FE0028FBD1BDE8F8832146BDE700BFC1
:100B0000BC060020A00200202DE9F047DFF8E090AD
:100B1000064600200F469046D9F8085003F0B2FE72
:100B2000D9F80810D9F80430D9F800400B44013343
:100B30001B1B022B58D801212C4803F065FFFFF73F
:100B40006FFD0146294803F05FFF99E80C00D9F8D2
:100B500008100B4401339B1A022BECD94FF0010A09
:100B60000A4009EB82024AF004036AF38913D36056
:100B7000D9F8003000200333C9F8003003F08AFEB2
:100B8000A31C2B4009EB830300211848C3F80C80F9
:100B900003F020FF80F3100004EB0A032B402C40ED
:100BA00009EB83030004023409EB840440EA164095
:100BB000D860237966F3C5032371A3886AF3891388
:100BC000A380626867F39F2213466AF301036FF301
:100BD00082036260237199F820341BB1FFF7E2FDB4
:100BE0000028FBD1BDE8F0872246B7E7BC0600200D
:100BF000A00200202DE9F04F394C83B007460020B9
:100C0000884601939246A66803F03CFEA16863689B
:100C100025680B4401335B1B032B5FD8012131484E
:100C200003F0F2FEFFF7FCFC01462E4803F0ECFE59
:100C300094E80C00A1680B4401339B1A032BEDD9F7
:100C40004FF0010B0A404FF0020904EB82024BF017
:100C5000040169F38911D160226800200432226006
:100C600003F018FE05EB0900EA1C304004EB80009D
:100C7000324004EB8202C0F80CA0019B1948D360FB
:100C8000002103F0A7FE80F3100005EB0B023240B9
:100C9000354004EB820200044D4404EB850540EA34
:100CA0001740D0602A7967F3C5022A71AA8869F3D0
:100CB0008912AA806A6868F39F2213466BF30103C6
:100CC0006FF382036A602B7194F820341BB1FFF735
:100CD00069FD0028FBD103B0BDE8F08F2A46AFE7DD
:100CE000A0020020BC06002030B4174DD5F81044F7
:100CF00000215CB1E3681A79914204D117E0DB6806
:100D00001A798A4213D01B68002BF8D1C3680E4AA7
:100D10001971D5F8103493B1DC68C36824681C607D
:100D2000D2F81034DB681860084630BC70470131D7
:100D30000A29DED14FF0FF31084630BC7047C2F8B7
:100D40001004C2681360EFE7A002002038B5094B19
:100D5000D3F81044012583F820544CB1E3685D7149
:100D6000236820465B689847E3681C68002CF5D12F
:100D700038BD00BFA00200202DE9F04784B01D4619
:100D80000C9C002394F80C802373EB8881460E465C
:100D90001746002B3BD1297A05290FD06B7A002BFF
:100DA0003DD1404BA88853F821A00021FFF7BAFCA1
:100DB000524603463C49204603F0D2FE062F0FD888
:100DC000DFE807F0484D535A04633900F168B06812
:100DD00096E80C00019100904946204603F0C0FEC1
:100DE0002B7A052B05D06B7A5BB93049204603F08E
:100DF000B7FE204603F0A8FE84F80C8004B0BDE8DE
:100E0000F0872B4A2B49204603F0AAFEEDE7284A3B
:100E100000922949294A204603F0A2FEBBE7A88890
:100E2000FFF7AAFC264B234953F82020204603F065
:100E300097FE297AB5E77069316996E80C0003904E
:100E4000B068F76802918DE881004946204603F0BA
:100E500087FEC5E74946204603F082FEC0E73268B8
:100E60004946204603F07CFEBAE7494696E80C0066
:100E7000204603F075FEB3E7B16896E80C00204603
:100E80000091494603F06CFEAAE7B068F768316943
:100E900096E80C0002918DE881004946204603F057
:100EA0005FFE9DE7A8140400081504001415040053
:100EB0000015040088180400E8140400E01404007D
:100EC000BC140400082900D970472DE9F0471D46DD
:100ED000002395F80CA02B73D38882B09146074667
:100EE0000E46002B62D199F80810052911D099F807
:100EF0000930002B62D1384BB9F8040053F8214077
:100F00000021FFF70FFC224603463449284603F030
:100F100027FE002405E03A5D013403F021FE082C91
:100F20000AD0A6422E492846F5D82E492846013433
:100F300003F016FE082CF4D12B49284603F010FECE
:100F4000002411E017F804803EF0B0FC404427492B
:100F5000437813F0970F14BF42462E2228460134DF
:100F600003F0FEFD082C08D0A64221492846E9D806
:100F7000013403F0F5FD082CF6D199F80830052B63
:100F800002D099F809305BB91A49284603F0E8FD08
:100F9000284603F0D9FD85F80CA002B0BDE8F08723
:100FA000154A1649284603F0DBFDEDE7124A009288
:100FB0001349144A284603F0D3FD94E7B9F8040016
:100FC000FFF7DAFB104B0D4953F82020284603F0B9
:100FD000C7FD99F808108EE7A8140400081504004E
:100FE0001815040020150400241504002815040019
:100FF00010150400141504000015040088180400DE
:10100000E8140400E0140400BC140400424B1978F6
:1010100000297FD02DE9F04F002487B001258E46AE
:1010200003E00134E4B2744561D23C4B27B21E6840
:1010300016F83700A0F1200305FA03F9384BC0F188
:101040002001D3E9002325FA01F149EA010905FA53
:1010500000F808EA020A09EA030B5AEA0B0C06EB4D
:10106000C701DED005912E4922EA080223EA0903CE
:10107000C1E9002306F0E4FE16F83760A6F120026D
:1010800005FA02F201920199C6F120035FFA80FA93
:1010900025FA03F3A6F1200219430AFA02F3039397
:1010A000019105FA06F10091C6F1200703991D4B45
:1010B0002AFA07F73943D3E9002303910AFA06F124
:1010C000DDE900AB02910AEA020A0BEA030B524681
:1010D0005B46DDE902AB5B4508BF5245059909D087
:1010E0000D4B013493F800E0E4B274459DD307B092
:1010F000BDE8F08F4B68002BF2D04978A1F10101D7
:10110000B1FA81F14909091AB1FA81F14909304668
:101110009847E5E7704700BF3408002030080020FA
:1011200060080020580800202DE9F84306462048B2
:1011300000F0AEFCD0B91F4F0123A6F1200103FA45
:1011400001F5C6F12002D7E9000123FA02F21543A6
:1011500003FA06F404EA000205EA0103134307D088
:1011600020EA040421EA0505C7E90045BDE8F88343
:10117000304606F065FE104ED6E9008998B148EA7F
:10118000040849EA0509D7E9002314431D43C6E9C9
:101190000089C7E90045094B054819680022BDE8E8
:1011A000F84300F025BC28EA040829EA0509EAE723
:1011B0003808002060080020580800202C08002073
:1011C000042A01D807207047F0B583B00F460546C2
:1011D000164606F0C7FC002831D01B4C1B4A1C4B9E
:1011E0001C481D49256017707C1E00221E600023CC
:1011F000C0E90023C1E90023E4B2D7B100270326E8
:1012000002E0DBB2ACB11C4623B205EBC30215F819
:1012100033009378114A8DF8053001A98DF80670D6
:101220008DF8046006F0A8FC631E0028E9D003B026
:10123000F0BD0B4A0B48002100F0C8FBF7E706F0B1
:101240003FFC0028C9D0F2E7300800203408002015
:101250002C080020580800206008002029110000F8
:101260000D1000008415040070B5084D2B785BB19B
:10127000074E00243368012113F8340006F064FDA2
:101280002B780134A342F5D8002070BD340800202B
:101290003008002000B585B000230390194601AA4C
:1012A00044F201000193029300F004F805B05DF8E8
:1012B00004FB00BF10B572B6FFF748FDFFF772FAE6
:1012C0000028FBD1104B114C11491C1BE4082404CD
:1012D00044F00100FFF7A8FB0E4B1B68DB0700D5AD
:1012E00000BE44F002000C49FFF79EFBBFF34F8F96
:1012F0000A490B4BCA6802F4E0621343CB60BFF3A8
:101300004F8F00BFFDE700BF0CA40400F4A304004E
:1013100088150400F0ED00E09415040000ED00E0F5
:101320000400FA0512F0030301D007207047F0B45F
:10133000094D0A4F2B700A4D3A604C1C2B70094F17
:10134000094D0A4E3880E400A4B22244298032605C
:101350001846F0BC704700BF7308002068080020E2
:101360007208002070080020740800206C0800201B
:101370002DE9F047294D2B888B4202D20920BDE888
:10138000F0870646002017460C4603F07BFA244BF4
:10139000244A2548197813780088DBB2834238BF85
:1013A0000133C9B234BFDBB2002399421FD092F897
:1013B00000801378DFF87890DBB283423ABF0133C4
:1013C000DBB200235FFA88F80020137003F062FAA2
:1013D000D9F800300FFA88F24FEAC20A43F83270A7
:1013E000534406B14CB900209880BDE8F087002036
:1013F00003F050FA0420BDE8F0870C4B28881B68E6
:10140000314608FB003022463EF07BFAD9F8003026
:101410009A440020AAF80440BDE8F0877008002034
:101420007208002073080020740800206C08002057
:10143000680800202DE9F047174C184D22782B78CA
:101440009A4226D0DFF85C90DFF85C80144FDFF81A
:101450005CA02378D9F800203888D8F80060DBB287
:101460000FFA83FC02EBCC0103FB0060898852F881
:101470003C3098472378BAF80020DBB29A4203F157
:1014800001038CBFDBB20023237022782B789A42B1
:10149000DFD1BDE8F08700BF72080020730800208C
:1014A00070080020680800206C08002074080020E4
:1014B000082910B5044602D00020FFF7EBFE236890
:1014C0006068BDE810401847F0B5264A264B002555
:1014D000C2F84051C2F84451C2F84851C2F84C51C8
:1014E000C2F80051C2F804511B6883B013B31F49FE
:1014F000D2F804250C68141B1A6824F07F44A24219
:101500002F4609D8197CDE69A41A1544A1B91EB169
:1015100033461A68A242F5D9154B16491A780B784A
:101520009A4218D01449154A41F823504FF48013B9
:10153000C2F8003103B0F0BD99691F7401915B6975
:101540000F4A009308216846FFF712FF0028DED0FB
:10155000FFF7A0FEDBE7531CDBB2022B08BF002322
:101560000B70DFE7001001407C08002078080020A5
:1015700080080020810800209009002000E100E0A0
:10158000B11400002DE9F04FAB4AAC49137809784B
:10159000994287B036D00133DBB2022B08BF00235B
:1015A000A7481370A74A076852F82310DFF8B0A2C3
:1015B0007A18DAF80030002422F07F4202602646D2
:1015C0002046A646ABB11A688A4200F26581DC6803
:1015D000C3F800E0891A1044DA6934B13D1825F0E7
:1015E0007F45DE619C605D601E4613460124002B32
:1015F000E9D1002C40F0848100230293012303935E
:10160000029D07E0DFF858A2DAF8003002930026C6
:1016100003961D468C4BDFF83892DFF848B243F052
:1016200001030493002301934EB37068B3683446FA
:10163000F669834A854F1168421A22F07F42BA4206
:101640003AD813442360002201216260A260E26163
:101650002174002D62D02968994245D2284603E0C2
:101660001168994230D21046C2695B1A002AF7D13C
:101670002360E2612B46C4611D46002ED5D199F846
:10168000003099F8012072499A427DD05A1C88781E
:10169000D2B2904203EB43030A7008BF0E7009EB0D
:1016A000C3010B798C68022B49D0032B3BD0012B53
:1016B00022D02B461D46E0E7091A21F07F419942CE
:1016C00009D25B1A2360BEE7C91A11602360E26188
:1016D0002B46C461D0E70023012223606360A3602E
:1016E000E3612274D5B12968CAF80040CB1A2B6097
:1016F0002346E5611D46C0E7227C002AD9D1C8688F
:1017000060600B69A3604F69E7609BF800708969AE
:10171000A161002F8DD0626010468AE72346CAF887
:1017200000401D46A9E700220DB9C2E71D46EB693E
:101730002A74002BFAD1CAF800301D469DE75DB12E
:10174000AC4200F09180A84602E0944209D0904655
:10175000D8F81C20002AF8D12B46002222741D46FE
:101760008BE7444500F08280E1692068C8F81C10CE
:101770002B460029F0D00A6802440A60019A9D4273
:1017800018BF01220192E8E7019B13B9029B9D4219
:1017900079D0002D00F09880294B2E481C68D0F895
:1017A00004652D4FD5F800903B78351B25F07F451B
:1017B0000335BBB9294B24494FF48032C0F8442388
:1017C0004FF00108C0F804234FF40032C3F8802121
:1017D00041F001011A60C0F800804FF43C60884776
:1017E00087F80080A9452CBF4C446419194824F09F
:1017F0007F43C0F84035D0F80415891B9B1B21F0AE
:101800007F4123F07F43033199420ED90E4BD0F82C
:101810000415C0F8401543F001034FF43C609847AD
:101820000E4B4FF40031C3F8001100238BF8003049
:1018300007B0BDE8F08F00BF8008002081080020BD
:101840007808002090090020B0150400FEFF7F00FA
:1018500084080020001001409809002000E100E009
:101860007C080020820800202A46A846EB69CAF8B6
:101870000030264FCBB1D1691068C8F81C10002980
:101880003FF47CAF77E7039B002B82D100238BF8DA
:10189000003007B0BDE8F08F002C34D1521A02930B
:1018A0001A6001230393029DB4E60592184A194970
:1018B000012090608BF800000B604FF43C60049BAB
:1018C00098473B68059AD6E7114E1349134C4FF4DD
:1018D000803301274FF40030C1F880003C43C6F844
:1018E00048334FF43C60C6F808337760A047094B93
:1018F000B7604FF43C601D60A047094B1D7094E732
:10190000CAF8003078E6CAF80030C7E77C08002043
:10191000001001407808002000E100E0B01504004C
:10192000980900202DE9F8431F4D204E204FDFF885
:1019300098804FF480334FF400324FF001090024B7
:10194000C6F8802047EA0907C5F848334FF43C60E1
:10195000C5F80833C5F80490B847C5F808904FF4A7
:101960003C60C8F80040B847124B13481349144A6A
:101970001C70144B04600C7014704FF48011C02262
:101980000B2098701C705C70C6F8801186F81423C8
:101990003160C5F8084586F81123D5F80435C8F834
:1019A00000302046BDE8F8830010014000E100E06F
:1019B000B0150400980900207C0800208008002051
:1019C000810800208408002078080020074B9B78BD
:1019D0000BB9082070473AB130B10368187C002871
:1019E000F7D159745A617047072070478408002066
:1019F0002DE9F041234CA37813B90820BDE8F0810C
:101A00000028FAD0042902D80720BDE8F0814369F4
:101A1000002BF2D0437C0546012B4FF000000CBF99
:101A20008846804617460E4602F02CFF6378A07861
:101A300021785A1CD2B2904208BF002291421AD09B
:101A400003EB430304EBC30301200F499D601871AE
:101A5000D1F80415D9601E61C3F814809F6100207D
:101A6000627002F017FF094B4FF48012C3F8002197
:101A70000020BDE8F081002002F00CFF0420BDE84A
:101A8000F08100BF840800200010014000E100E068
:101A900070B5184DAB780BB9082070BD0028FBD08D
:101AA0004369002BF8D0002404740646204602F057
:101AB000E9FE6A78A8782978531CDBB2984208BFFF
:101AC0002346994211D002EB420205EBC2020221E9
:101AD0002046966011716B7002F0DCFE064B4FF4ED
:101AE0008012C3F80021204670BD204602F0D2FECD
:101AF000042070BD8408002000E100E030B583B010
:101B000001A9124802F0E8FEF0B1114D0446286820
:101B10002060002002F0B6FE0E4B0F481B880268C2
:101B200001339B1AE380002102F054FFA0800020C3
:101B300002F0B0FE01A9054802F0FCFE074B1B684D
:101B400013B101462846984703B030BDF009002084
:101B5000EC150400620B0020A0090020640B00209B
:101B600030B50378052B83B0054626D0002B31D144
:101B70002C4B1C683CB1236868889B689847236895
:101B80005C68002CF7D1284C002002F07BFE236813
:101B90007BB10121244802F037FF002002F07AFED9
:101BA000224B1B6813B1284601219847236803B0D4
:101BB00030BD1F4B6A881A80EBE71E4BD3F8842494
:101BC000D3F8803413F0FF0F04D11B4BD2B2052A97
:101BD00008BF1D4601A9194802F07EFE04460028F0
:101BE000E5D02B680360002002F04CFE104B0E483D
:101BF0001B88026801339B1AE380002102F0EAFE91
:101C0000A080002002F046FE01A90C4802F092FEDE
:101C1000064B1B68002BCAD001462846984703B0E4
:101C200030BD00BFEC090020A0090020640B00209B
:101C3000620B002000700240C8150400F00900206B
:101C400030B5012883B028D030D3022823D101A990
:101C50001B4802F041FE0446E8B11A4D2868206096
:101C6000002002F00FFE184B18481B880268013351
:101C70009B1AE380002102F0ADFEA080002002F05C
:101C800009FE01A90E4802F055FE114B1B6813B165
:101C900001462846984703B030BD01A9084802F024
:101CA0001BFE04460028F6D00A4DD7E701A90448D8
:101CB00002F012FE04460028EDD0074DCEE700BF2B
:101CC000F0090020E4150400620B0020A0090020A8
:101CD000640B0020E0150400E81504002DE9F04F26
:101CE00087B006AE00250446894692469B4646F8D4
:101CF000105DA84601E008F10108626801235568FB
:101D0000214600223046A8470028F4D18DF806006D
:101D10000490B8F1000F28D00546064662680123FA
:101D2000576821460DF1060204A8B84762680123EE
:101D3000576821460DF1070204A8B8479DF80730FF
:101D40004B454FF00002214604A803D1AA4510D00C
:101D50000135EDB29DF806306768023B7F68B847F1
:101D60009DF806301E44B045D8D8052007B0BDE820
:101D7000F08F109A9DF8063013608BF800308BF8C6
:101D800001906168023B4D680BF102022146A847B1
:101D9000002007B0BDE8F08FF0B5082383B00546FA
:101DA0004FF484723649374802F07EFD18B103249F
:101DB000204603B0F0BD344804F040FA0446002841
:101DC000F6D1324A324B334E147021464822324803
:101DD00034601C603DF0BBFD214648222F483DF099
:101DE000B6FD002D46D095E807002D4B83E807008F
:101DF000002003F087FB002837D12A4D274F2B7A8C
:101E00006E68DFF894E04FF0030C0CFB035C0CF100
:101E1000090C05F1090262451AD0CAB154780021B3
:101E200011E090780344DA4210D0D35C13F0800FB5
:101E300003F00F0314BF0EEBC30307EBC303013121
:101E40001D6030685860CBB2A342EAD30332E2E7A8
:101E500002A90B2301F8043D124833689847044651
:101E60000028A5D004F082FAA2E78528C5D0FFF7A4
:101E700011FAC2E70A4B1D605D601D72B8E700BF32
:101E8000540A0020F0090020611B0000600B0020B4
:101E9000080A00209C0900200C0A0020A409002048
:101EA000640B00203816040010B503F04FFB04F05B
:101EB0005DFA18490B68044600202BB11A680860C7
:101EC00013681146002BF9D113490B6800202BB180
:101ED0001A6808605368111D002BF9D10F490B686F
:101EE00000202BB11A6808605368111D002BF9D12E
:101EF000482200210A483DF02AFD482200210948D5
:101F00003DF025FD0C22002107483DF020FD204634
:101F100010BD00BF9C090020080A0020EC09002029
:101F20000C0A0020A4090020640B002010B504F066
:101F30000BFB08B9082010BD04F00EFB0446002876
:101F4000F8D1044803F0F4FA00B910BDFFF7A2F984
:101F5000204610BDF415040004F018BA05F0A2B92B
:101F60004FF0804303E0D3F83824D1072BD5D3F8C2
:101F700038249207F7D530B583B001A9124802F092
:101F8000ABFC0446E8B1114D28682060002002F047
:101F900079FC0F4B0F481B88026801339B1AE380C2
:101FA000002102F017FDA080002002F073FC01A9BF
:101FB000054802F0BFFC084B1B6813B101462846D8
:101FC000984703B030BD7047F0090020DC150400CD
:101FD000620B0020A0090020640B002030B583B004
:101FE000822301A913488DF8003002F075FCF8B186
:101FF00002AD044655F8080D2060002002F042FCB6
:102000000D4B0E481B88026801339B1AE3800021A8
:1020100002F0E0FCA080002002F03CFC01A9054891
:1020200002F088FC064B1B6813B10146284698470E
:1020300003B030BDF0090020620B0020A009002091
:10204000640B00202DE9F04F037881B08346852B87
:1020500000F2A280DFE813F08902D801A3002A026F
:102060005902C800D000A000EB00FE001101A00042
:10207000A000A000A0003301A000A000A000A000CC
:10208000A000A000A000A000A000A000A000A00050
:10209000A000A000A000A000A000A000A000A00040
:1020A000A000A000A000A000A000A000A000A00030
:1020B000A000A000A000A000A000A000A000A00020
:1020C000A000A000A000A000A000A000A000A00010
:1020D000A000A000A000A000A000A000A000A00000
:1020E000A000A000A000A000A000A000A000A000F0
:1020F000A000A000A000A000A000A000A000A000E0
:10210000A000A000A000A000A000A000A000A000CF
:10211000A000A000A000A000A000A000A000A000BF
:10212000A000A000A000A000A000A000A000A000AF
:10213000A000A000A000A000A000A000A000A0009F
:10214000A000A000A000A000A000A000A000A0008F
:10215000A000A000A000A000240147019501860076
:102160000C02C800A14D2B78032B15D104F0B0FF51
:1021700090B12B789A1ED2B2062A05D89C498A5C67
:1021800012B103F0ABF92B78022B00F02783082B58
:1021900000F0248304232B7001B0BDE8F08F934D31
:1021A0002B789A1ED2B2062A05D891498A5C12B1C0
:1021B00003F094F92B78022B01D0082B01D104F005
:1021C00015FA8C4B5B6803222A700BB102209847EA
:1021D000894B1C6844B1636820461B685946984780
:1021E00023681C68002CF6D1844B93E805005946FF
:1021F00001B0BDE8F04F1047827813064CBF804B0A
:102200007E4B02F00F0203EBC20393E80500594630
:1022100090470028C0D09BF8020000F00F03013B5C
:10222000062BB9D801B0BDE8F04F04F00DBB714BDF
:102230005B680BB1082098476F4B1C68002CABD033
:10224000636820461B685946984723681C68002C21
:10225000F6D1A1E7674B5B680BB109209847664B45
:102260001C68002C98D0636820461B685946984724
:1022700023681C68002CF6D18EE75E4B5B680BB1BF
:102280000A2098475C4B1C68002C85D06368204668
:102290001B685946984723681C68002CF6D17BE7D9
:1022A000524C2378062B00F06B82072B02D0052BB3
:1022B0007FF472AF04F0A4F9022323706CE74D4B56
:1022C0005B680BB10F2098474B4B1C68002C3FF408
:1022D00063AF636820461B685946984723681C68AB
:1022E000002CF6D158E7454BDFF80C91454993E8AF
:1022F00005009047D9F80040002C00F06782636821
:1023000040491B682046984723681C68002CF6D17A
:10231000DFF8E0A0DAF804300BB10D209847D9F8C7
:102320000070002F00F0CE8197F80890B9F1000FEF
:1023300000F0C3814FF00008444607F109057B68AF
:10234000DB6813B12146384698473B7AA34240F2F6
:1023500028816E78002E00F0A781002423463246A3
:102360000AE0AB782A190134D05C05F02DF9E3B20C
:102370009E4240F299816A789A42F2D800231B78F3
:10238000FFDEDFF87490D9F80070002F00F057815D
:1023900097F808A0BAF1000F00F04C814FF0000848
:1023A000444607F109057B68DB6813B121463846CE
:1023B00098473B7AA34240F2F4806E78002E00F0FA
:1023C00030810024234632460AE0AB782A190134D2
:1023D000D05C05F0F9F8E3B2B34280F022816A786C
:1023E0009A42F2D800231B78FFDE00BF600B00206A
:1023F000B8150400640B00209C090020A4090020EB
:102400000C0A0020F0150400DFF80893D9F80070DA
:10241000002F00F0D78097F808A0BAF1000F00F065
:10242000CC804FF00008444607F109057B68DB6863
:1024300013B12146384698473B7AA34240F2B18017
:102440006E78002E00F0B0800024234632460AE069
:10245000AB782A190134D05C05F0B6F8E3B29E429D
:1024600040F2A2806A789342F2D300231B78FFDE09
:10247000A34D2B78032B00F08D8104F085F8002804
:102480003FF48AAE2B789A1ED2B2062A00F29981C6
:102490009C498A5C002A00F09481022B00F06A813A
:1024A000082B00F0678106232B7075E6944D2B787E
:1024B000082B00F047819A1ED2B2062A40F25481BE
:1024C000914802F0DDFF2B78022B00F04A81082BA7
:1024D00000F0478105232B708C4B5B680BB1032008
:1024E00098478B4B594693E805009047894B1C68E9
:1024F000002C3FF451AE636820461B68594698474C
:1025000023681C68002CF6D146E6804B5B680BB153
:10251000032098477E4B804993E8050090477D4B08
:102520001C6844B163687C491B682046984723684F
:102530001C68002CF6D1724D2B78062B00F0FF8022
:10254000082B0FD09A1ED2B2062A00F21E816D49C6
:102550008A5C002A00F01981022B03D0082B01D0DD
:1025600004F04EF802232B7016E6654B1B78032B04
:1025700000F0F380082B00F0F080644B5B680BB137
:1025800000209847654B1C68002C3FF405AE63683B
:1025900020461B685946984723685C68002CF6D192
:1025A000FAE500235B78FFDE08F101085FFA88F4A2
:1025B000A24505F103053FF639AF3B681F68002FC0
:1025C0007FF429AF4E4D01F0D9FD2B789A1ED2B27F
:1025D000062A00F2AF804B498A5C002A00F0AA80EC
:1025E000022B03D0082B01D004F00AF8474B5B689C
:1025F00002222A700BB101209847454B594693E8B7
:1026000005009047D9F80040002C3FF4C5AD636841
:1026100020461B685946984723681C68002CF6D151
:10262000BAE508F101085FFA88F4A24505F103054F
:102630003FF6B9AE3B681F68002F7FF4A9AE304D5E
:1026400004F078FC2B789A1ED2B2062A6AD9022BA3
:1026500000F08080082B7DD0D9F8004000232B703B
:1026600044B163682E491B682046984723681C685C
:10267000002CF6D1264B2A4993E805009047234BBE
:102680005B680BB10E2098472B78023BDBB2062B20
:102690003FF682AD1B4AD35C002B3FF47DAD01B009
:1026A000BDE8F04F02F01ABF08F101085FFA88F4A4
:1026B000A14505F103053FF642AE3B681F68002FB8
:1026C0007FF432AE01F064FD144B1B68002B54D034
:1026D00001200B4D03F000FF2B789A1ED2B2062A80
:1026E00006D9022B33D0082B31D001232B7053E5B0
:1026F00004498A5C002AF4D002F0F0FE2B78F0E75F
:10270000600B0020B815040008000020640B0020B6
:10271000A40900209C090020CC150400080A002010
:10272000C015040030498A5C002A90D002F0D6FE21
:102730002B788CE72D4802F0A3FE2B7850E7072377
:102740002B7029E502232B7003F064FFC4E603F02D
:102750004DFFCAE703F04AFF7EE72548FFF772FC0A
:102760000BE703F043FFB5E61F498A5C002A7FF4BC
:10277000ABAEA5E603F03AFF95E69AF80800A8E7A5
:1027800003F03EFF0823237006E5184802F078FEA8
:102790002B78E1E604F09CFC00283FF46EAE2B7829
:1027A0009A1ED2B2062A05D80F498A5C12B102F0ED
:1027B00095FE2B78022B14D0082B12D004232B70FB
:1027C0005BE60A4802F05CFE2B7866E6DFF824A0A0
:1027D000DAF80430002B7FF4A0AD73E703F006FFB6
:1027E000D8E403F003FFE9E7B8150400080000206F
:1027F000C4150400640B002030B5274D83B0286851
:102800000023019300B38488A4B1C388B3F5006F9B
:102810003ABF5A1C92B2012204F1FF3428BF0023B0
:102820008480C28001A8ADF80630FFF70BFC0120C0
:1028300003B030BDFFF706FC1849194802F0BAF89A
:1028400001202C6003B030BD1449154802F082F815
:10285000044628600028D6D1124B1B680BB91846D5
:10286000E6E702F00FF8104A0E481388B3F5006F40
:1028700035BF5C1C2346A4B2012401211480ADF8AD
:10288000063002F0DDF8002002F004F801A8FFF79E
:10289000D9FB0120CCE700BF000A00205C0B002020
:1028A000F0090020A0090020620B00202DE9F04172
:1028B00090F808E0314D324F032606FB0E0600F17A
:1028C000090C09366246B24282B01BD0DAB15478A4
:1028D000002111E092F802804344DA420FD0D35C29
:1028E00013F0800F03F00F0314BF07EBC30305EBD6
:1028F000C30301311B686BBBCBB2A342EAD30332E3
:10290000B242E3D100221D4D1D4ED1B2714525D2F8
:1029100001EB41011CEB010120D0002712E08C7873
:102920002344D94212D0CB5C13F0800F03F00F0385
:1029300014BF06EBC30305EBC303013718604468FB
:1029400024685C604C78FBB29C42E8D890F808E0C0
:102950000132DAE7112002B0BDE8F081094A1368BC
:102960001BB11A681368002BFBD102A910600B225F
:1029700001F8042D43681B689847ECE7A409002080
:102980000C0A00209C0900202DE9F04F6B4DDFF868
:10299000B0B1DFF8B0A183B02F46D946D0460C269F
:1029A0002C68002C65D002A9636801F8046D2046EC
:1029B0001B68984700285DD123681B683B6023682B
:1029C0001860DBF800309C42DBF8083004BFC9F81F
:1029D0000000C9F804009C4200F0A980DBF8103028
:1029E0009C4200F09E80DBF818309C4200F09380FF
:1029F000DBF820309C4200F08880DBF828309C42D5
:102A00007DD0DBF830309C4273D0DBF838309C420C
:102A100069D0DBF840309C425FD0DAF800309C424D
:102A200055D0DAF808309C424BD0DAF810309C428E
:102A300041D0DAF818309C4237D0DAF820309C4286
:102A40002DD0DAF828309C4223D0DAF830309C427E
:102A500019D0DAF838309C420FD0DAF840309C4276
:102A60009ED12C680023CAF84030CAF84430002CAC
:102A700099D1204603B0BDE8F08F0023CAF8383062
:102A8000CAF83C30E9E70023CAF83030CAF83430DD
:102A9000DFE70023CAF82830CAF82C30D5E7002336
:102AA000CAF82030CAF82430CBE70023CAF818301F
:102AB000CAF81C30C1E70023CAF81030CAF8143035
:102AC000B7E70023CAF80830CAF80C30ADE7002396
:102AD000C8F80030C8F80430A3E70023CBF8403032
:102AE000CBF8443099E70023CBF83830CBF83C30B2
:102AF0008FE70023CBF83030CBF8343085E7002364
:102B0000CBF82830CBF82C307BE70023CBF82030F3
:102B1000CBF8243071E70023CBF81830CBF81C3009
:102B200066E70023CBF81030CBF814305BE70023C6
:102B3000CBF80830CBF80C3050E700BF9C090020E0
:102B40000C0A0020A4090020024B1878003018BF9E
:102B500001207047040A002000F00F03072B10B576
:102B6000044604D803F0FEFE204603F079FE20461A
:102B7000BDE8104004F086B904F026BD014B18688A
:102B8000704700BF9C090020F0B4104B1F6897B13C
:102B90003C7AB4B100231D463A4605E00133DDB26C
:102BA000AC4202F103020CD9A34207D0567A864206
:102BB000F4D101B10D703846F0BC704700231B788A
:102BC000FFDE3B681F68002FE2D1F4E79C0900207C
:102BD000436811461B68184700F00F03082B01D902
:102BE0001020704702064CBF044A054A02EBC3039B
:102BF00018680028F4D043681B6818470C0A0020A6
:102C0000A409002038B5094B1C6805461CB90AE028
:102C100023681C683CB1636829461B6820469847B6
:102C20000628F5D038BD062038BD00BF9C0900201D
:102C300038B50D46044603F003FD08B9082038BD39
:102C4000044B1B78022BF9D129462046BDE83840B9
:102C500003F006BD600B002038B50D46044603F0B6
:102C6000EFFC08B9082038BD044B1B78022BF9D1C2
:102C700029462046BDE8384003F088BD600B00209F
:102C8000F8B543689B6804460D4616461BB1984745
:102C9000062800D0F8BD0EB10720F8BD237AAB425C
:102CA00023D9093405EB45052C446778FFB1354637
:102CB00033463A4614E0A3786219D65C06F00F0357
:102CC000072B05D8304603F04DFE304603F0C8FD13
:102CD0003046013504F0D6F8EBB29F4207D962784E
:102CE0009A42E8D800231B78FFDE7378FFDE0020CD
:102CF000F8BD00BF43681B6903B118471846704709
:102D00002DE9F0472A4BD3F80090B9F1000F4DD0D0
:102D100099F808A0BAF1000F3FD000273C4609F10E
:102D200009050BE0002221464846984706280AD0AC
:102D30000137FCB2A24505F103052ED9D9F80430BC
:102D40009B68002BEED199F80830A34202D80023EB
:102D50005B78FFDE95F80180B8F1000FE8D0002421
:102D60002346424614E0AB782A19D65C06F00F03DE
:102D7000072B05D8304603F0F5FD304603F070FD13
:102D80003046013404F07EF8E3B29845D0D96A7831
:102D90009342E8D300231B78FFDED9F80030D3F844
:102DA0000090B9F1000FB3D1BDE8F087BDE8F0871E
:102DB0009C0900202DE9F8431F4B1F68002F38D0D5
:102DC00097F80890B9F1000F2AD04FF00008444658
:102DD00007F109057B68DB6813B12146384698473F
:102DE0003B7AA34222D96E7896B10024234632461C
:102DF00009E0AB782A190134D05C04F0E5FBE3B2BA
:102E00009E4205D96A789342F3D300231B78FFDEF4
:102E100008F101085FFA88F4A14505F10305D9D846
:102E20003B681F68002FCBD1BDE8F88300235B7897
:102E3000FFDEBDE8F88300BF9C0900204360CA693B
:102E4000934205D901F1280202608B670020704788
:102E50008A6902600B67CB6100207047F0B5046897
:102E6000C04E0D7A3570B4F5517F00F0758359D995
:102E700040F25635AC4200F0A88300F2EF80B4F582
:102E8000537F00F0C18340F2778140F25135AC426C
:102E900000F0D58300F2128240F24F35AC4200F0D0
:102EA0005A84B4F5547F40F00683002A00F0498626
:102EB000057901274FF0000E0224BB4202F80E50A4
:102EC000047140F25084254607F1010E0224734537
:102ED000D555047140F2F38325460EF10107052410
:102EE000BB4202F80E50047140F23084254607F1CF
:102EF000010E24247345D555047140F222842546E1
:102F00000EF101070624BB4202F80E50047140F294
:102F10002F847D1CD455AB420F7D077140F29783FF
:102F20006C1CC0E140F2263E744500F07B8345D81E
:102F300040F2163E744500F01F8340F26C8140F26F
:102F4000193E744500F0DE8300F25D8240F21737CF
:102F5000BC4200F06B83B4F5467F40F0AC82002A9F
:102F600000F0D38507794FF0010E4FF0000C0024DC
:102F7000734502F80C70047140F225840EF10107CC
:102F800002F80E40DFF8E8E100248EF80040AC4281
:102F900080F0F8830924BB42047140F297847D1CC1
:102FA000002A00F0E7840479D455AB424FF00404C2
:102FB000047140F25C8405F1010E34E240F23335D5
:102FC000AC4200F01183B4F54D7FC0F08280B4F5BF
:102FD0004F7F00F0578340F2668240F24235AC42A8
:102FE00000F0598200F2388340F24135AC4240F0A3
:102FF000628201240027002A00F0CF840579D5558C
:10300000A3424FF02405057140F25284AE46671C7E
:103010000025BB4202F804E0057140F2238407F169
:10302000010E10247345D555047140F208842546DD
:103030000EF101070124BB4202F80E50047140F268
:10304000EF83254607EB040E05247345D55504711F
:1030500040F2D78325460EF10107A4E040F2723515
:10306000AC4200F0D98240F2098140F28335AC4293
:1030700000F0A882B4F5617FC0F03F8240F289354C
:10308000AC4200F0008240F28E35AC4200F0FB8191
:10309000B4F5617F40F00F82002A00F0408404798B
:1030A000012700255455304C0D7D24682478A54215
:1030B00000F0CA838D7DA54200F0FF83DFF8B4E005
:1030C0002A4D9EF800402D780134E4B28EF800407D
:1030D0003BE0B4F54B7F00F0258300F2018140F224
:1030E0002735AC4200F01683B4F54A7F40F0E38107
:1030F000002A00F03A851C4C057927684FF0000E35
:10310000012402F80E503D780F7DAF4200F0CA83D3
:103110008F7DAF4200F0FC830025A342057140F291
:10312000E781671C0AB1057915550F4C91F814E039
:1031300024682578AE4500F0F98165780B4CDFF8FE
:1031400034E0257000248EF80040AC42C0F0B78116
:10315000DFF81CE035789EF800400134E4B28EF8C8
:10316000004014E7700B0020740B0020790B002046
:10317000780B00207A0B002040F24935AC4200F079
:103180000B8300F2308140F24535AC4200F0A18261
:10319000B4F5527F40F08F81002A00F0C484057995
:1031A00001274FF0000E2424BB4202F80E50047198
:1031B00040F21883254607F1010E01247345D555C9
:1031C000047140F20A8325460EEB04070324BB4238
:1031D00002F80E50047140F2F1827D1CD455AB42CE
:1031E00091F816E080F804E040F2D1826F1C0424CC
:1031F000BB4202F805E0047140F2BF82254607F1A8
:10320000010E24247345D555047140F25D82254694
:103210000EF1010750E640F21337BC4200F0C482C1
:10322000B4F5457F6ED2002C00F02F8240F21237A9
:10323000BC4240F04081002A00F01B8404791470E5
:103240000B27012B077140F2908303244FF0020CEF
:103250004FF0010E02F80E70634591F814E080F80B
:1032600004E040F2E7820227A34202F80CE0077173
:1032700040F2D182BE4604F1010C52E040F25935D1
:10328000AC4200F0F18169D840F25735AC4200F011
:10329000F281B4F5567F40F00E81002A00F055848B
:1032A0000779012400255755A3428D7D057140F211
:1032B0002182671C1555C94C24683EE740F25235FF
:1032C000AC4200F0518140F25535AC4240F0F38001
:1032D000002A00F0248405794FF0010E002708E64B
:1032E00040F22D35AC4200F0DA8140F22E35AC428E
:1032F00040F0E180002A00F0328400270579D5559E
:10330000012409E700F0ED8140F21537BC4240F09E
:10331000D280002A00F00F8490F804E04FF0010CF6
:1033200000240227634502F804E0077140F264823A
:103330000CF1010E0224734502F80C70047140F286
:1033400056820EF1010C02F80E4063454C7E04716A
:1033500040F23E8227460CF1010E08E640F26D3540
:10336000AC4200F0128140F26E35AC4240F0A380D6
:10337000002A00F0028404790127002554553D46B7
:10338000964F974CD7F800E024789EF80170A7423A
:1033900040F2A6809EF802707444AB42E45D047172
:1033A00040F2D5806F1C0AB1047954559EF8004054
:1033B0000D7DA54200F060828D7DA54200F09082D7
:1033C0004024BB42047140F2A7807D1C002A00F01B
:1033D00090820479D4559D424FF00004047180F02E
:1033E000A0806F1C5EE640F24A35AC4200F0D0800F
:1033F00040F24B35AC425ED1002A00F0888304795C
:1034000001250027EAE6B4F5487F00F078812F46D1
:1034100040F22135AC424ED1002A00F0A38304795A
:103420004FF0010E002554550F7A6E4C2478A742B8
:1034300059D904EB440401F10905684F15F804C09B
:1034400080F804C02C4473453C6040F206820EF1C3
:103450000104002A00F07582057902F80E50A3429B
:103460004FF00005057140F2E08104F1010E5B4F61
:1034700015553F6873457C78047140F2C781254635
:103480000EF101043DE601270024002A3FF416AEA8
:103490000579155512E6002A00F03F8390F804E004
:1034A00001270024B4E5B4F54D7F79D040F23535DD
:1034B000AC423FF41FAF002303601846F0BD072461
:1034C0009F42047139D27D1C002A00F030820479B9
:1034D000D455AB424FF00504047133D96F1C4DE74E
:1034E00000231B78FFDE3D4A002313601B78FFDEBC
:1034F0004FF44F7303600120F0BD40F27735AC42CA
:1035000002D0B4F55F7FD6D101270024002A3FF412
:1035100057AF0579155553E740F283330360012017
:10352000F0BD4FF4617303600120F0BD0524BB4280
:10353000047140F2F7817C1C5DE540F26D3303605D
:103540000120F0BD40F26E3303600120F0BD40F277
:10355000723303600120F0BD002A00F0E282057999
:1035600001274FF0000E65E5002A00F0C3820579BF
:1035700001274FF0000EB2E4002A00F0C482077960
:103580004FF0010E4FF0000CD4E6012500279BE719
:10359000002A00F0BE82057901274FF0000E15E6E3
:1035A000002A00F0B88290F804E0012700250024EA
:1035B000BB4202F805E0047140F26F812546D55503
:1035C0007C1CA9E50125002700E7002A00F099826C
:1035D000057901274FF0000E94E400BF740B002022
:1035E0007A0B0020780B002001250024002A00F02F
:1035F0004B81077917554FF0000E9D4280F804E08B
:1036000080F07E816F1CD2E7002A00F0788290F86B
:1036100004E001270025EAE5BC4C0127D4F800E0CE
:103620000025C0E601244FF0000E12E7002A00F04A
:10363000908204794FF0010C4FF0000E83E6002ACF
:1036400000F0818205794FF0010E00273EE44FF42F
:10365000567303600120F0BD002A00F066820579F0
:103660004FF0010E0027DCE4002A00F08382057988
:10367000012700241EE6002A00F06182047901255A
:10368000002747E4012700244CE508240471002B9F
:103690007FF4D1AD40F2123303600120F0BD002A67
:1036A00000F045820479012700255455BB424C7E29
:1036B000047183D840F22E3303600120F0BD40F244
:1036C000523303600120F0BD4FF4547303600120B6
:1036D000F0BD002A00F0318205794FF0010E00277D
:1036E000B2E4002A00F0338290F804E001244FF0A5
:1036F000000CB8E540F2593303600120F0BD01250C
:1037000000274DE4002A00F01981047901274FF0C9
:10371000000E35E4002A00F01E8205794FF0010EFC
:103720000024A4E601250024002A00F0D0810779B6
:103730001755AB424FF00204047140F2CC806F1C6D
:10374000B3E740F2563303600120F0BD40F2553339
:1037500003600120F0BD002A00F0EB8105794FF0F5
:10376000010E00274DE540F2513303600120F0BD0A
:1037700040F2573303600120F0BD40F24F33036045
:103780000120F0BD40F2993303600120F0BD4FF4F9
:10379000537303600120F0BD002A00F0DE8105793B
:1037A0004FF0010E002708E5002A00F0A5810779F7
:1037B00002244FF0010C4FF0000E4BE540F24B336A
:1037C00003600120F0BD40F2193303600120F0BD19
:1037D0004FF4467303600120F0BD40F24A330360AA
:1037E0000120F0BD40F2493303600120F0BD40F2FA
:1037F000173303600120F0BD40F21633036001204F
:10380000F0BD4FF4527303600120F0BD4FF44A73D2
:1038100003600120F0BD40F2153303600120F0BDCC
:1038200040F2453303600120F0BD40F227330360CE
:103830000120F0BD4FF4457303600120F0BD4FF44B
:10384000517303600120F0BD0C6ABB4224780471FF
:1038500040F286803C46013717E640F2263303608B
:103860000120F0BD40F2433303600120F0BD40F27F
:10387000213303600120F0BD03249F42047180F0D6
:1038800082803C46013741E69D42027138D26C1C71
:103890000025A342057100F2258140F23533036013
:1038A0000120F0BD0225A342057171D9651C3BE7DB
:1038B00040F2423303600120F0BD0024BB4204719A
:1038C000C8D840F28E3303600120F0BD4FF4487336
:1038D00003600120F0BD40F22D3303600120F0BDF4
:1038E00002249F420471CCD34FF45F730360012024
:1038F000F0BD9D420271BFF414AE6F1CFFF7D3BB45
:103900004FF44D7303600120F0BD00BF740B002025
:103910000A25A342057140F2E880651C66E601278E
:10392000FFF7C1BB40F2413303600120F0BD052425
:10393000AB4204717FF606AE013521E50127FFF7A2
:1039400021BBA34202717FF670AF01348C4D2F680A
:10395000A3427D7805717FF659AF0134FFF7D3BBE1
:1039600040F2893303600120F0BD40F2133303605D
:103970000120F0BD0424AB4204717FF678AF05F15D
:10398000010E0F7A51E540F2773303600120F0BD5C
:103990004FF44B7303600120F0BD2425A342057151
:1039A00086D901340025A34205717FF65BAF01344F
:1039B0001025A34205717FF642AF01340125A342D1
:1039C00005717FF62DAF2C440525A34205717FF6C6
:1039D00018AF01342425A34205717FF603AF671C9D
:1039E0000124BB4204717FF6F8AE27440324BB4296
:1039F00004717FF6E3AE01378C7D0471BB427FF624
:103A0000C6AE01370424BB4204717FF6B6AE01375F
:103A10002424BB4204717FF657AE01370224BB4217
:103A200004717FF6A0AE01370224BB4204717FF619
:103A300046AE01370524BB4204717FF687AE0137DD
:103A40002424BB4204717FF67CAE01370624BB42BE
:103A500004717FF68DAE01370C7D0471BB427FF699
:103A6000F6AD01378C7D0471BB427FF643AE013762
:103A700021E40B24012B04717FF677AF0324022786
:103A800091F814E080F804E0BB427FF6D3AE022741
:103A9000A34207717FF6BFAE01340227A34207712C
:103AA0007FF6AAAE01340227A34207717FF69FAECC
:103AB00001344F7E0771A3427FF68AAE013400279E
:103AC000A34207717FF67FAE671CFFF75BBA022443
:103AD000AB4204717FF6FFAE6C1C4D7E0571A342B4
:103AE0007FF6E8AD0134FFF717BB40F233330360D4
:103AF0000120F0BD01279DE702240127C0E701272F
:103B000080E70127A2E70124CDE70124D7E70127B9
:103B100072E701276AE70124BAE6012442E7012798
:103B20008EE701244AE7012454E7012440E70124F9
:103B3000D3E701276CE70124AFE7012444E701271D
:103B40008AE701276AE701276EE701278AE7012450
:103B50009DE70124ADE70124F8E6012740E70124B1
:103B6000FFF7DABA4FF0010E5FE4054D01242F682C
:103B7000FFF7C9BA0127FFF79EBB012500E400BF8C
:103B8000740B00204360CA69934205D901F12802F1
:103B9000026000208B6770478A6910B40260C869B0
:103BA0008C690A6F1C441A44C31A181C8C6118BF14
:103BB00001200A67CB615DF8044B704708B1032010
:103BC00070470B681A7B202A01D00620704710B579
:103BD0000722044603F10E0103F118003BF091FEA9
:103BE000204610BD2DE9F0430B7889B00D460646FE
:103BF0000E2B42D8DFE803F03C083C3C411A46411A
:103C00004108413C3C3C3C000368002403F1340281
:103C10005A671C845C62DC629C67DC67C3F8804086
:103C2000C3F88440204609B0BDE8F0834B78DA0938
:103C300063D15B09012B20D18B780768202B3AD008
:103C4000222B1AD1B1F80730BBB9B1F8033097F87D
:103C500020203B8402F0010203F001039A4299B252
:103C600006D0002900F03481C3690BB102219847C6
:103C70000024204609B0BDE8F0830624204609B0A0
:103C8000BDE8F083037A89788BB1827A093082B1FA
:103C9000F27A825C8A42EBD00A0642D4EA78012AA0
:103CA000E6D046D3032AE3D00324BBE700235B78A6
:103CB000FFDE1378FFDEB1F80720072ADDD13B7362
:103CC000B1F807300024DBB27B7320460E37069331
:103CD0000794059700F0D6FD204605A9FEF7A8FF3A
:103CE000044630B9904B049603A9039300F052FDAB
:103CF0000446002000F0CEFD94E7C3F34112002AF1
:103D00004DD0012AB9D18B78212BB6D1B1F807203B
:103D1000072AB2D10168681C183100F043FA044642
:103D200080E7EC78002C5CD0032C0CBF002403242B
:103D300078E73568012B05F10C00B7D9737B012BAF
:103D400006F10C0228D9B37B7849069005911344FB
:103D5000AA6A93F80190002A4BD1EB6AE96FAA672F
:103D6000C5F88010EA67002B00F0968005F12C035F
:103D700093E8030005F1240383E803004846EA6260
:103D800005A9FEF769FF0446F369002B3FF44AAF2B
:103D900030460021984745E700231B78FFDE03F0FB
:103DA0001F03012B7FF469AF8C78062C7FF465AF7D
:103DB00005A8039200F002FD0DF10C0E0746EA780B
:103DC0002979CDF800E030463B46FDF787FF05280E
:103DD0003FF428AF3946681C039A00F0E3F9044623
:103DE00020E7F369002B3FF443AF304601219847A9
:103DF00018E7D5F88480686A05F1340E424528BF7B
:103E000042467146144677463BF07BFDEA6FE96A0D
:103E1000C4EB080307EB040E22440020AB67C5F88F
:103E200074E0C5F88020E86700294FD005F12C0721
:103E300097E8030005F124044FF0000884E803002C
:103E4000C5F82C805BB3AA6A9A420DD930E097E896
:103E5000030084E80300AB6FC5F82C80FBB1AA6AAD
:103E60009A4225D8D5F874E0686A71463BF049FD5E
:103E7000AB6AAA6F696FC5F88030D21A0B44AA6783
:103E80006B67F36913B1002130469847EB6A002B4A
:103E9000DDD16B62002477E700246C6274E76B6A03
:103EA000002BF7D0484605A9FEF7D6FE04466BE77F
:103EB0001A46696F686A3BF024FDAB6FAA6A696AAB
:103EC000EB67D21A0B44AA626B62E9E70023E0E7D2
:103ED000C3690BB103219847337A012B7FF6E6AE15
:103EE000727B06F10C04002A3FF4E3AEB37BE05C86
:103EF00003F0E8FA337A012B7FF6D8AE737B012BFF
:103F00007FF64AAFB37B23440024587803F0DAFAF3
:103F100007F134037C62FC62BC67FC67C7F8804031
:103F2000C7F884407B677DE6BD3B0000853B000011
:103F300003681B8CDB0701D408207047037A012B30
:103F400016D910B5437B84B000F10C040BB91B7873
:103F5000FFDE0B46817B605C019391060CBF012460
:103F6000002401A902920394FEF762FE04B010BD82
:103F700000235B78FFDE00BF0368D3F88000704742
:103F800030B50468238CDB0783B002D4082003B06B
:103F900030BDA56F25B9636AA3B1112003B030BD50
:103FA000954228BF154608462A46616F3BF0A9FC9A
:103FB000A36F626FC4F880505B1B2A44A3676267DB
:103FC0000020E4E76162A262027A012A12D9417BF1
:103FD000012900F10C020FD9837B08490091134499
:103FE0000C34587801946946FEF736FE002808BF65
:103FF0009220CCE75B78FFDE1B78FFDE3D2E0000D1
:1040000070B50C4606680020154600F03BFC631EA8
:10401000012B05D90624002000F03CFC204670BD91
:10402000338C234214BF012300232B600024002083
:1040300000F030FC204670BD002070472DE9F04FA5
:104040004B6887B0002B7ED00C4615460392029039
:1040500002F0F6FBE668AE4228BF2E468346002EED
:1040600000F088804FF0000A5746D1464FF0010813
:10407000CDF804A0A3686168B3429A4628BFB2464F
:1040800000293FD052460BEB07003BF03AFCA368F7
:10409000C4F80490E268CAEB0303CAEB0202A3600F
:1040A000CAEB06065744E260002B45D1019B5BB981
:1040B00092B99046002EDDD1029AC2F800B0576046
:1040C000404607B0BDE8F08F23681B681B6823607B
:1040D00001230193002AECD02168002941D0CDF8BA
:1040E000109003E0A36821680133A3604B680022AD
:1040F0005D6804A80123A8470028F3D12061002EA1
:10410000B8D1D9E7002BC5D02046534650F8101B34
:104110004A6855680BEB0702A847A368E268CAEB38
:104120000303CAEB0202CAEB06065744A360E2602F
:10413000002BC9D001230193002A08BF4FF00008CB
:10414000002E97D1B8E70B681B681B68002B7FF423
:104150007BAF8B68002B7FF477AF0360436098469A
:10416000AEE76160002FA7D0039BBB4288BF4FF032
:104170000008A1E737464FF001089DE708B5002089
:10418000FEF7EAFC8020BDE80840FEF7E5BC00BF72
:1041900008B50020FEF7F0FC8020BDE80840FEF7DF
:1041A000EBBC00BF70B5C38893421D4628BF1546BF
:1041B000934284B00E4618D8002200200392019644
:1041C000029500F05FFB01A98020FEF731FD044657
:1041D00028B1002000F05EFB204604B070BD02F064
:1041E00033FC80280DD01024F3E78020144602F021
:1041F00017FAB4FBF0F303FB1040B0FA80F2520957
:10420000DBE7034A034B92E8030083E80300E0E79F
:10421000741604007C0B00202DE9F04F0B78062B60
:1042200087B07CD010D90D2B69D02AD80B2B06D0A3
:104230000C2B2FD1AD4A1378002B40F08E80002438
:10424000204607B0BDE8F08F022BF8D045D9032BEC
:1042500025D0052B1ED10DF10D008DF80C3002F08C
:1042600091FB9DF80D20A24D002102F01F03296053
:10427000032B00F2B880DFE813F0BA00D300AE00E1
:104280009F000E2B19D0852B04D1984B1A78032A46
:1042900000F0EC800624204607B0BDE8F08F95487A
:1042A00000F0ECFB0028CAD0934B01221A60BFF348
:1042B0006F8FBFF34F8F0024C2E78C4B1A78012A0F
:1042C000BDD08E498E480A78012422F002021C706B
:1042D0000A700024FDF7B6FEB2E7012BDAD1834B5A
:1042E0001A78032AD6D0854985480A78032422F013
:1042F00002021C700A700624FDF7A4FEA0E74FF02E
:104300008043D3F8383413F0010F784B1A7821D05A
:10431000022A94D079497A480A780224D5E7C878E5
:1043200003280D46B6D0724E3368002B00F09C80F7
:1043300000223260716898470446002854D13368DF
:10434000002B00F09E80AB78002B7FF478AF02F05A
:104350003FFB75E7012AB4D171E7684C68482178C2
:10436000002321F00201217013701C46FDF76AFE44
:1043700066E79DF80E10062900F0FA80082900F083
:10438000E580C9B95F4C022220463BF0E0FA5B4A67
:1043900023781278900743F0010148BF43F00303EC
:1043A00021700DF10D0048BF237002225549FFF71F
:1043B000F9FE0446062C03D103A8FEF723FC0446AD
:1043C00094B92B68002B56D002F03EFB044600281F
:1043D0007FF435AFBBE79DF81100010758D112F00B
:1043E000600F00F09580062402F024FB28E7C2F35A
:1043F0004113002BE0D1D209BBD19DF80E30032B25
:1044000064D0092B53D0012BD6D1BDF80F30012B2E
:10441000D2D1FEF799FB002840F098810F24E3E702
:1044200001A99DF81100FEF7AFFB064638B303AAB9
:104430009DF80410FEF7CCFB06280446C0D19DF879
:104440000D3013F0600FCFD1284A9DF80410127878
:10445000DF099DF80E3040F0B7800B2BC4D1052A40
:1044600000F07A810824BFE70E24BDE723492448E1
:104470000A7804243BE702F0D3FA0024E0E6102493
:10448000B2E7214B1B68082B0BD002F0C9FAD7E624
:1044900003A9FEF7A1FB0628044691D19DF80D2043
:1044A0009DE71A4B1B68002B3FF4C9AEEDE70F4C9C
:1044B0002378043B012BD5D89DF80F30002B00F05A
:1044C0003481012B00F0258107248DE7BDF80F30E2
:1044D000012B7FF471AFFEF737FB00289ED0074A0F
:1044E000137843F0020313706BE700BFED0B00205D
:1044F0007C0B0020D00B00205C700240EC0B0020F5
:1045000034160400840B0020300100103401001028
:104510009DF80E20964B9DF811401B78012A3DD046
:1045200067D3032A7FF45FAF04F00F02072A3FF638
:104530005AAFBDF80F1000297FF455AF052B01D0FD
:10454000002A8FD1204602F07FF93AE7884909789E
:10455000052900F0C38004297FF42EAF854A13702B
:104560000DF10D0001228349FFF71CFE044621E7EF
:104570009DF81020022A63D0032A4BD0012A7FF431
:104580001BAFBDF81330002B3FF475AF0DF10D00DC
:1045900012227949FFF706FE04460BE704F00F02EA
:1045A000072A3FF620AFBDF80F1000297FF41BAF9C
:1045B000052B02D0002A7FF455AF204602F0D2F935
:1045C000204602F04DF9FCE6002B00F08A800A2B11
:1045D0007FF40AAF052A7FF445AF3046FEF78AFB29
:1045E00064493A4608700DF10D00FFF7DBFD044603
:1045F000E6E6052B02D023077FF434AF204602F015
:104600008FF95C49022208800DF10D00FFF7CAFD09
:104610000446D5E6BDF81330002B3FF42CAFBDF8AF
:1046200011109DF80F0000F0F9F8014600283FF442
:10463000C3AE0DF10D000A78FFF7B4FD0446B9E6EC
:10464000BDF81320002A3FF416AF092A28BF09221B
:104650001C4691469B46FEF791FA4FF0090A064622
:10466000AEB1CDF804B0002700E001377268012335
:10467000D2F804803146002201A8C0470028F4D1B6
:10468000337A326823441668BA44DCB2E8E7394E1C
:104690003A4930464A463BF034F93471A6F802A054
:1046A000FEF752FA18B1F37943F02003F371FEF7E5
:1046B00065FA334BBDF81320186000205E60C3F824
:1046C0000890DA6000F0DEF82E498020FEF7C4FA88
:1046D000044698B1002000F0DDF86BE6254B1A7017
:1046E0003EE7052A7FF4BEAE224C0DF10D002146B7
:1046F00023800222FFF756FD044661E602F0A4F98A
:10470000802805BF204B93E80300102485E80300B0
:10471000E0E7FEF7F5FA2378052B3FF452AE0523C8
:104720001A482370FDF78EFC4BE6FEF743FB237817
:10473000042B3FF446AE164A14481378042123F0A4
:10474000020313702170FDF77DFC3AE6104A1378DE
:1047500023F00203137034E6BDF80F30FF2B3FF651
:10476000B3AE30469DF80F20FEF78AFA044627E6DE
:10477000ED0B0020840B002020160400141604000A
:10478000D40B0020481604007416040034160400EC
:10479000EC0B002038B504460D4602F055F9A04256
:1047A00002D01023184638BD95E80300024A82E87B
:1047B00003000023184638BD7C0B002008B14023BD
:1047C00003600148704700BF840B002070B54FF0B4
:1047D000805286B0D2F8A830D2F8A42000926FEAB6
:1047E00083436FEA93439BB202A80A4A0A4E0D2103
:1047F0003BF0FAFB0DF10705002404E015F8013F3A
:1048000006F8013F013402A83BF055FC8442F5D381
:1048100006B070BD7C16040067C5002010B30528E3
:1048200022D8154B185CF0B1144B10B553F820404A
:10483000E4B123780BB9A01C10BD0020FFF7BEFF28
:104840002278AAB100230133DBB220F8132014F838
:10485000012F002AF7D101335B00DBB243F4407330
:10486000038010BD0648704700207047204610BDE9
:1048700040F20233F4E700BFA016040088160400DB
:10488000AA16040072B6024A136801331360704717
:10489000F00B0020034A1368013B136003B962B6B2
:1048A000704700BFF00B002099B110B4B2FBF3F4D5
:1048B00003FB1424A4B21CB109205DF8044B70471B
:1048C00080E8120084608281C38120465DF8044B39
:1048D00070470E20704700BF30B482B050E8013FEF
:1048E0009DB2C48925448489A54228BF2D1B048913
:1048F000A54202BFBFF32F8F002207E0C5EA0305E0
:1049000040E80154002CE9D14FF001028DF803205A
:104910000193019B9DF803200B602AB10B8800686E
:10492000184402B030BC704702F0FF03184602B0D2
:1049300030BC70470A884B889A4201D000207047EB
:1049400050E8012FC2EA024240E80123002BF7D1D0
:104950000120704730B482B050E8023F1FFAA3F53F
:10496000C488A54202BFBFF32F8F00220DE0C48987
:1049700025448489A54228BF2D1BC3EA054540E88C
:104980000254002CE8D14FF001028DF8032001936E
:10499000019B9DF803200B602AB14B8800681844E6
:1049A00002B030BC704702F0FF03184602B030BCC2
:1049B000704700BF0A884B889A4201D00020704798
:1049C00050E8022FC2EA224240E80223002BF7D12E
:1049D0000120704700B550E8002F0B4640E8003E2C
:1049E0009EF0000FF7D110465DF804FB00B550E8CB
:1049F000003F03EA010240E8002E9EF0000FF6D1CE
:104A000010465DF804FB00BF00B550E8003F03EB23
:104A1000010240E8002E9EF0000FF6D110465DF82E
:104A200004FB00BF00B550E8003FA3EB010240E8E3
:104A3000002E9EF0000FF6D110465DF804FB00BF7B
:104A400000B550E8003F8B422CBF5A1A1A4640E886
:104A5000002E9EF0000FF4D110465DF804FB00BF5D
:104A600000B5012350E8002F42EA030E40E800E1C0
:104A700091F0000FF6D170465DF804FB00B50023FD
:104A800050E800EF0EEA030240E8002191F0000F29
:104A9000F6D170465DF804FBB8B130B44168826865
:104AA0000468521AD2B2531E2160DBB242B10168CF
:104AB0000A685C1E551C0D601370E3B2FF2BF6D123
:104AC00003680020187130BC70470E20704700BF8B
:104AD00070B504460020FFF7D5FE236861681A68A8
:104AE0008A4215D9511E19602168A3680D6808799A
:104AF000268A12F8012CE4685B1BDBB2984206FBA5
:104B0000024400D20B710020FFF7C4FE204670BDA6
:104B100000240020FFF7BEFE204670BD38B50546D4
:104B200000200C46FFF7AEFE2A681368591C11607E
:104B3000E9682A8A641AB4FBF2F41C700020BDE80C
:104B40003840FFF7A7BE00BF826802B9704710B5B2
:104B5000044643690168006998470023A36010BDBB
:104B60000EB400B582B0039929B102AA04AB42F891
:104B7000043D00F095F802B05DF804EB03B0704717
:104B80002DE9F84F1746B942884606461D46DDF81E
:104B900028B00B9A7DD30B464FF00109B3FBF7F316
:104BA0009F4209F10109F9D9A94538BFA94612F078
:104BB000010A02D1BBF1000F49D1B268012402E021
:104BC000013D07FB04F4012DFAD8B8FBF4F18F4244
:104BD000F7D9324D05E0B4FBF7F4A4B1B8FBF4F11A
:104BE000B268685C531CB36033689854B2687368E9
:104BF0009A4201FB1488EED33046FFF7A5FFB4FBC1
:104C0000F7F4002CEAD1BAF1000F16D0BBF1000F77
:104C100033D0CB4588BF20243ED9B3683268591CB5
:104C2000B160D454B26873689A420BF1FF3B06D26C
:104C3000BBF1000F09D0D945EFD3BDE8F88F30465E
:104C4000FFF782FFBBF1000FF5D1BDE8F88F9307A6
:104C50001AD42024D945B0D2B2683368511CB1604F
:104C60009C54B26873689A420BF1FF3B07D2BBF1C8
:104C7000000FA3D0D945F0D3A0E7BDE8F88F3046A8
:104C8000FFF762FFB268F2E7002D0CBF302420244A
:104C9000E0E74FF0010987E7BDE8F88FFC16040054
:104CA000002900F061822DE9F04F064685B091465B
:104CB0000C460B78DFF8ECA40DE0B2683168501CAC
:104CC000B0608B54B26873689A4280F0D3802378C6
:104CD000002B00F0BA800134002B00F0B680252BA9
:104CE000EBD14FF00008214614F8013B2D2B00F0CA
:104CF000BB80302B00F0BB802B2B00F0AD802A2B2B
:104D000000F0BC80A3F13005EAB2092A98BF013156
:104D100002D9A6E1A2F130050C4611F8013BA3F13E
:104D2000300005EB8502092803EB4202F2D91A464E
:104D30002E2A00F0AF80002701E014F8012F02F0C6
:104D4000FB03682BF9D0253A532A79D8DFE812F013
:104D50007601780078007800780078007800780094
:104D60007800780078007800780078007800780083
:104D70007800780078007800780078007800780073
:104D80007800780078007800780078007800780063
:104D90007800780078007800780078007800780053
:104DA0007800780078007800780078007800780043
:104DB0007800780078006601780078007800780044
:104DC0007800780078007800780078005101F900C8
:104DD0007800780078007800F90078007800780092
:104DE000780078007800540078007800C9007800D6
:104DF000B900780078006601D9F80020131DC9F8C1
:104E00000030B36831681568581C3022B060CA544D
:104E1000B3687268934280F0AE813268581C782182
:104E2000B060D154B26873689A4280F0A0810022C9
:104E3000082301922946009310223046FFF7A0FE76
:104E400001342378002B7FF446AF337B002B40F0F6
:104E5000028105B0BDE8F08F214614F8013B2D2BEF
:104E600048F004087FF445AF48F001083BE748F0FC
:104E7000020838E73046FFF767FE28E7D9F8003028
:104E80001A1DC9F800204A781D682E2A01F1010474
:104E90007FF451AF6278A2F13003092B04F10104D1
:104EA0004FF000073FF64BAF07EB870702EB4707D2
:104EB00014F8012FA2F13003092BA7F13007F3D921
:104EC0003DE7D9F800301A1DC9F800201968CDF85F
:104ED00004803B4600950A223046FFF751FE01341C
:104EE000AFE7D9F800301A1DC9F8002018F0010FFB
:104EF0001F6840F0BD80002F00F0528138463BF023
:104F0000DAF88046454540F2FB80002D00F0F8803D
:104F10004FF0200B05E0454540F2F280002D00F0F7
:104F2000EF80B2683368511CB16003F802B0B26818
:104F300073689A4205F1FF35EDD33046FFF704FE62
:104F4000E9E7D9F800301A1DC9F80020D3F800B0FD
:104F50008BEAEB73A3EBEB73092B4FF0010108DD38
:104F60008AFB0302DB17C3EBA203092B01F101014A
:104F7000F6DCB94238BF394635B1BBF1000F02DB70
:104F800018F0040F00D0013D18F0020F6DD118F099
:104F9000010F17D1002D00F0E8808D4288BF20233B
:104FA00010D9B268501CB06030688354B268706821
:104FB000824205F1FF3580F08A80002D00F0D58017
:104FC0008D42EED8BBF1000FC0F2DA8018F0040F6A
:104FD00040F0858008F00303022B00F0A4808DE8E8
:104FE00020013B4659460A223046FFF7C9FD0134ED
:104FF00027E7D9F80020131DC9F80030B3683168DD
:105000001278581CB060CA54B26873689A42FFF4B0
:1050100017AF3046FFF798FD013412E7D9F800309A
:105020001A1DC9F800201968CDF804803B46009588
:1050300010223046FFF7A4FD013402E7B36832685E
:10504000591CB1604FF02501D154B26873689A427F
:10505000DFD20134F5E6304605B0BDE8F04FFFF78A
:1050600073BD1A460C46002562E6002FAAD08EE7D3
:10507000B846C7EB080B18F8012B8AB1B168336842
:10508000481CB0605A54B26873689A42F1D33046F3
:10509000FFF75AFDC7EB080B18F8012B002AEDD1DA
:1050A0005D457FF6CDAE202702E05D457FF6C8AEB8
:1050B000B2683368511CB1609F54B26873689A42F9
:1050C00005F1FF35F1D33046FFF73EFDEDE7304601
:1050D00003930291FFF738FD039B02996DE7B268D5
:1050E000531CB36033682B209854B26873689A429B
:1050F000FFF470AF30460291FFF726FD029969E791
:10510000013F17F8013F002B3FF49AAEB2683168B7
:10511000501CB0608B54B26873689A42F1D3304629
:10512000FFF712FDEDE7002F7FF459AF002D35D0CA
:105130008D4288BF30237FF652AFB268501CB060FA
:1051400030688354B2687068824205F1FF3503D23B
:1051500025B38D42F1D842E7304603930291FFF721
:10516000F3FC039B0299F3E7704700252AE73046DA
:10517000FFF7EAFC5BE63046FFF7E6FCB3684CE677
:10518000B268531CB36033682D209854B2687368BA
:105190009A42CBF1000BFFF41DAFABE700251EE7F1
:1051A000B846AFE667666666FFF776BC2DE9F04164
:1051B000B0F81080A8F104084144CF1C0646B7FBA4
:1051C000F8F7FFF785FC80B3FFB200250123013F0C
:1051D0000446A0F8068006600571437128D0804619
:1051E00009E06379AF4203F101036371C8F800007D
:1051F000066080461CD03046FFF76AFC0135002867
:10520000EFD16679721E234603D0013082421B68BB
:10521000FBD81F684EB1002523682146013538466A
:105220001C46FFF77BFCAE42F6D10020BDE8F081C2
:105230002046BDE8F08100BF04300121FFF7E4BB48
:10524000F8B5012104460430FFF7ECFBC0B200B111
:10525000F8BD6679721E234603D0013082421B6876
:10526000FBD81F68002EF3D00025236821460135A6
:1052700038461C46FFF752FCAE42F6D1F8BD00BFDF
:105280002DE9F843C788467907FB06F6D518043E92
:10529000AE42044603F10400884638BFF51AB0FB5D
:1052A000F7F128BF154607FB110011B10139246839
:1052B000FCD13E1AAE4228BF2E469DB14FF00009E8
:1052C0002044AD1B324608EB090104303AF019FBCB
:1052D000AF42B14424683E464FF0000028BF2E463E
:1052E000002DEDD1BDE8F8832DE9F843C78890F88B
:1052F00005E007FB0EFED518AEF1040EAE450446E0
:1053000003F104008846B0FBF7F638BFC3EB0E0587
:1053100007FB160128BF154616B1013E2468FCD1D3
:105320007E1AAE4228BF2E469DB14FF0000921449F
:10533000AD1B0431324608EB09003AF0E2FAAF4205
:10534000B14424683E464FF0000128BF2E46002D90
:10535000EDD1BDE8F88300BF8268002393608268C6
:105360001361826853618268D36082685360826887
:105370001360704710B568B101280AD10C4C23693D
:10538000A07033B10CCB0120226198472369002B18
:10539000F8D110BD064CA36801226270002BF8D032
:1053A0000CCB0020A2609847A368002BF8D110BD59
:1053B000F40B002010B50B4C237882B013B185207C
:1053C00002B010BD08486360A3602361E36002F08F
:1053D000D7FA019002F0E2FA01980123237002B09B
:1053E00010BD00BFF40B00207553000038B5154DFB
:1053F000AB78044673B110B1436801209847002090
:10540000FFF740FAEB680133EB600020BDE838405D
:10541000FFF740BA03F0FF00FFF734FA64B12A69DE
:1054200042B1944208D0134601E09C4204D01B686C
:10543000002BFAD122602C61EB68002BE2D102F044
:10544000C5FADFE7F40B002038B5084C0020FFF761
:1054500019FAE368013BE360E56815B902F0CEFA9A
:10546000A5700020BDE83840FFF714BAF40B002007
:105470004FF08043D3F81804C0F30040704700BFDA
:1054800038B5154D6B78044673B110B143680020F0
:1054900098470020FFF7F6F96B6801336B60002036
:1054A000BDE83840FFF7F6B903F0FF00FFF7EAF96F
:1054B00064B1AA6842B1944208D0134601E09C420C
:1054C00004D01B68002BFAD12260AC606B68002B03
:1054D000E2D102F09FFADFE7F40B002038B5084C68
:1054E0000020FFF7CFF96368013B6360656815B979
:1054F00002F0A2FA65700020BDE83840FFF7CAB993
:10550000F40B002010B5084C23780BB1852010BD9A
:10551000064B002808BF184602F098FF0028F6D175
:105520000123237010BD00BF080C002014170400D5
:1055300010B5044602F0C4FF02F0CAFF204602F094
:10554000ADFF02F0B5FF002010BD00BF08B502F0AE
:10555000B7FFBDE8084002F0BBBF00BF30B44C68E5
:105560009C4208D2002545600968016093420CD036
:10557000002030BC704743600D6805600868E41A7D
:105580001844934281E81100F2D1201C18BF012079
:1055900030BC70474B689A4228BF1A4610B40C685A
:1055A0000460426048680B685DF8044B801A13443D
:1055B0004860003018BF01200B6070474B689A426A
:1055C00028BF1A4662B10B680360426048680B68E6
:1055D000801A13444860101C0B6018BF01207047EC
:1055E0001346F1E710B582B002A800230121064A54
:1055F0000193064C00F8041D0549126823700B70D6
:10560000904702B010BD00BF540C00207C0D00205C
:10561000090C0020704700BF00B583B000220D4B7D
:105620008DF80420D3F82025ADF80620D3F8C03437
:10563000094A0A4910680968002B0CBF4FF48073AF
:105640004FF00123034301A81360884703B05DF8BE
:1056500004FB00BF00700240800D0020540C0020AD
:10566000F8B50C4622C90A4F954228BF1546064692
:105670002A4638463AF045F9756037602368606815
:105680002B44401B60602360003018BF0120F8BD30
:105690000C0C0020F8B54C68944228BF14460D4607
:1056A00006465CB9046074606A682B68121B234468
:1056B000201C6A602B6018BF0120F8BD034F0968E9
:1056C000384622463AF01DF93760ECE70C0C002012
:1056D00010B40B4A0B4C92F89E100B480023032980
:1056E0002360037005D0D2F8903013B15DF8044BFD
:1056F00070476FF0010105485DF8044BFFF776B97C
:105700005C0C00201C7C0240590C00204C0C00203A
:1057100030B51D4B1A78130683B01CD41B4B1C48A4
:105720001D68016802F00F031033012404FA03F32B
:1057300019432B42016001D003B030BD154B8DF8E9
:10574000062006221B688DF807408DF8042001A86A
:10575000984703B030BD0E4D0C4B28681C680121E2
:1057600002F00F0301FA03F3184323402860E3D14A
:1057700008498DF8062006228DF8073001A80B682D
:105780008DF804209847D7E7090C00204C0C002026
:10579000800D0020540C002010B5244BD3F8004499
:1057A000C3F8004482B0BFF36F8FBFF34F8FBFF3D6
:1057B0006F8FBFF34F8FE1052AD4A2051CD4630578
:1057C00002D51B4B1A780AB902B010BD174C194804
:1057D000012100221A70C4F808150160BFF36F8F11
:1057E000BFF34F8F144B019202A8042100F8041D4F
:1057F0001B68984702B010BD02A8002303210E4A7F
:10580000019300F8041D0A4912680B709047D6E70F
:1058100002A8002301930222074B00F8042D044A3A
:105820001B68012111709847C7E700BF0070024054
:105830007C0D002058700240540C002010B5114A15
:10584000114C92F88E10114800230329236082B076
:10585000037002D0D2F880400CB102B010BD6FF0DE
:1058600080710B48FFF7C2F80A4B8DF807400621FC
:1058700008221B688DF804108DF8062001A89847AF
:1058800002B010BD5C0C00201C7C0240590C0020B2
:105890004C0C0020540C002010B5154A154C92F801
:1058A0001E11154800230329236082B0037004D021
:1058B000D2F8104144B102B010BD6FF480710F48AE
:1058C000FFF794F802B010BD6FF480710B48FFF73A
:1058D0008DF80B4B8DF80740062188221B688DF848
:1058E00004108DF8062001A8984702B010BD00BF33
:1058F0005C0C00201C7C0240590C00204C0C002049
:10590000540C002010B40B4A0B4C92F8AE100B480C
:10591000002303292360037005D0D2F8A03013B10F
:105920005DF8044B70476FF0020105485DF8044BC9
:10593000FFF75CB85C0C00201C7C0240590C002076
:105940004C0C002010B40B4A0B4C92F8BE100B48C4
:10595000002303292360037005D0D2F8B03013B1BF
:105960005DF8044B70476FF0040105485DF8044B87
:10597000FFF73CB85C0C00201C7C0240590C002056
:105980004C0C002010B40B4A0B4C92F8CE100B4874
:10599000002303292360037005D0D2F8C03013B16F
:1059A0005DF8044B70476FF0080105485DF8044B43
:1059B000FFF71CB85C0C00201C7C0240590C002036
:1059C0004C0C002010B40B4A0B4C92F8DE100B4824
:1059D000002303292360037005D0D2F8D03013B11F
:1059E0005DF8044B70476FF0100105485DF8044BFB
:1059F000FEF7FCBF5C0C00201C7C0240590C002010
:105A00004C0C002010B40B4A0B4C92F8EE100B48D3
:105A1000002303292360037005D0D2F8E03013B1CE
:105A20005DF8044B70476FF0200105485DF8044BAA
:105A3000FEF7DCBF5C0C00201C7C0240590C0020EF
:105A40004C0C002010B40B4A0B4C92F8FE100B4883
:105A5000002303292360037005D0D2F8F03013B17E
:105A60005DF8044B70476FF0400105485DF8044B4A
:105A7000FEF7BCBF5C0C00201C7C0240590C0020CF
:105A80004C0C002010B40B4A0B4C92F80E110B4832
:105A9000002303292360037005D0D2F8003113B12D
:105AA0005DF8044B70476FF0800105485DF8044BCA
:105AB000FEF79CBF5C0C00201C7C0240590C0020AF
:105AC0004C0C00202DE9F04FDFF89CA2DFF8AC92DF
:105AD000DAF80030D9F80020134087B079D0DFF829
